:060000000A128A110C280F
:10000800FE00030EF1000A08F2000A128A11A12963
:100018000A128A110F28F901FA0183120313B20197
:1000280083010A128A1111290030F7000030F60006
:100038000030F5000030F400831203132308220473
:1000480021042004031929282A287728F801F80A06
:100058003A280130F3000310A00DA10DA20DA30D45
:10006800F30B2F280130F3007308F807A31F3D286E
:100078003E282D280130F3000310F40DF50DF60D80
:10008800F70DF30B402823082702031D55282208E3
:100098002602031D552821082502031D552820087E
:1000A8002402031C5828592868282008A40221087B
:1000B800031C210FA5022208031C220FA6022308F5
:1000C800031C230FA702741401300310A30CA20C05
:1000D800A10CA00CFF3E031D69280130F802031D86
:1000E800762877283E287708A3007608A2007508A6
:1000F800A1007408A0000800F500831603138112FC
:100108008111AA28F8308105D1280108F839013869
:100118008100D1280108F83902388100D128010866
:10012800F83903388100D1280108F83904388100EA
:10013800D1280108F83905388100D1280108F83993
:1001480006388100D12807308104D1287508F300CA
:10015800F4017408003A0319B528013A0319CC28A8
:10016800D1287308023A03198628063A0319892800
:100178000C3A03198E28183A03199328303A0319B0
:100188009828603A03199D28C03A0319A228D12853
:100198007308003A0319A728D1283D3083120313A6
:1001A80081000B1108002830831203139400831672
:1001B80003139101831203132808AC002908AD002A
:1001C8002A08AE002B08AF0002300310AC0DAD0DAD
:1001D800AE0DAF0DFF3E031DE9282F08A3002E0822
:1001E800A2002D08A1002C08A0000030A7007A303A
:1001F800A6001230A5000030A4000A128A111820A7
:100208000A128A11831203132008FF3E8316031370
:10021800930094018715071608000A128A1177219E
:100228000A128A110A128A11E6210A128A1150301A
:10023800F3000030F4000A128A11D3210A128A113D
:10024800831203133208B000B1013008F3003108FB
:10025800F4000A128A11D3210A128A110A128A1189
:10026800DD210A128A111A3083120313B100F73004
:10027800B000B00B3D29B10B3D29422916290A12BD
:100288008A110C28F500831603130F1460290F0830
:100298008F3940388F0076290F088F3950388F00F2
:1002A80076290F088F3960388F00762970308F04CF
:1002B800762970308F0476297508F300F4017408E4
:1002C800003A031968295D297308013A03194B2973
:1002D800033A03195029063A031955290C3A031908
:1002E8005A295D29080083160317880189010F30F0
:1002F8008316031386008312031386018B160B17CC
:100308008B1704300A128A1146210A128A1100300A
:1003180083120313AB000130AA008630A900A03075
:10032800A8000A128A11D7200A128A1100300A126C
:100338008A1180200A128A1108000B1DA429A529F8
:10034800BA290130F0007008FA0712307A06031D46
:10035800AE29AF29B629FA010130F00070088312DE
:100368000313B20783120313320886000A128A1194
:10037800EF210A128A1172088A00710E8300FE0E9C
:100388007E0E0900831603131419CB29CC29C6291C
:1003980011081F39031DD129D229C62908000A12BC
:1003A8008A11C6210A128A11730883120313930053
:1003B80008000A128A11C6210A128A118316031329
:1003C800111508000A128A11C6210A128A11831609
:1003D8000313111408000B113D308312031381001D
:0203E80008000B
:08400000FF3FFF3FFF3FFF3FC0
:04400E00D520FF3F7B
:00000001FF
