:060000000A128A110C280F
:10000800FE00030EF1000A08F2000A128A11032A00
:100018000A128A110F28F801F901FA018312031351
:10002800B301B401B50183010A128A118328003093
:1000380083120313AB000030AA000030A90000307F
:10004800A800230822042104200403192C282D28A1
:100058007A28AC01AC0A3D280130F3000310A00D4A
:10006800A10DA20DA30DF30B32280130F300730884
:10007800AC07A31F4028412830280130F3000310A3
:10008800A80DA90DAA0DAB0DF30B432823082702D1
:10009800031D582822082602031D58282108250276
:1000A800031D582820082402031C5B285C286B28A1
:1000B8002008A4022108031C210FA5022208031C02
:1000C800220FA6022308031C230FA70228140130BD
:1000D8000310A30CA20CA10CA00CFF3E031D6C285E
:1000E8000130AC02031D79287A2841282B08A30087
:1000F8002A08A2002908A1002808A00008000A125E
:100108008A11A3210A128A110A128A1148220A1294
:100118008A115030F3000030F4000A128A11352297
:100128000A128A11831203133508B100B20131088B
:10013800F3003208F4000A128A1135220A128A11D1
:100148000A128A113F220A128A111A3083120313E3
:10015800B200F730B100B10BAF28B20BAF28B4280A
:100168000A128A1148220A128A115130F30000300B
:10017800F4000A128A1135220A128A110030F3009B
:10018800F4000A128A11D3210A128A117308831201
:10019800031388000A128A113F220A128A110D30AD
:1001A80083120313B200FB30B100B10BD928B20B94
:1001B800D92888280A128A110C28F50083160313F7
:1001C800811281110B29F830810532290108F8398B
:1001D8000138810032290108F839023881003229B2
:1001E8000108F8390338810032290108F839043840
:1001F800810032290108F8390538810032290108BF
:10020800F839063881003229073081043229750807
:10021800F300F4017408003A03191629013A031986
:100228002D2932297308023A0319E728063A0319D7
:10023800EA280C3A0319EF28183A0319F428303A37
:100248000319F928603A0319FE28C03A031903294B
:1002580032297308003A0319082932293D308312DC
:10026800031381000B110800283083120313940034
:10027800831603139101831203132D08F4002E082B
:10028800F5002F08F6003008F70002300310F40DCF
:10029800F50DF60DF70DFF3E031D4A297708A3005B
:1002A8007608A2007508A1007408A0000030A70015
:1002B8007A30A6001230A5000030A4000A128A1174
:1002C8001B200A128A11831203132008FF3E83168B
:1002D800031393009401871507160800F500831689
:1002E80003130F148C290F088F3940388F00A22967
:1002F8000F088F3950388F00A2290F088F396038BE
:100308008F00A22970308F04A22970308F04A2298F
:100318007508F300F4017408003A0319942989292F
:100328007308013A03197729033A03197C29063A15
:10033800031981290C3A031986298929080083168B
:100348000317880189010F3083160313860083126F
:10035800031386018316031388018312031388018C
:100368008B160B178B1704300A128A1172210A1286
:100378008A11003083120313B0000130AF008630B9
:10038800AE00A030AD000A128A1138210A128A1173
:1003980000300A128A11E1200A128A1108000A1292
:1003A8008A1128220A128A118316031391150A1238
:1003B8008A1128220A128A11831203131308F500DE
:1003C800F6017508A0007608A1000A128A112822F1
:1003D8000A128A1173037404031DF329F429F829F6
:1003E800831603139112FB29831603139116111612
:1003F800831203132108F4002008F30008000B1DE2
:10040800062A072A1C2A0130F0007008FA07123061
:100418007A06031D102A112A182AFA010130F00061
:10042800700883120313B507831203133508860077
:100438000A128A1151220A128A1172088A00710E50
:100448008300FE0E7E0E09008316031314192D2A4D
:100458002E2A282A11081F39031D332A342A282A4C
:1004680008000A128A1128220A128A1173088312B4
:100478000313930008000A128A1128220A128A110B
:1004880083160313111508000A128A1128220A126A
:100498008A1183160313111408000B113D308312BF
:0604A800031381000800AF
:08400000FF3FFF3FFF3FFF3FC0
:04400E00D520FF3F7B
:00000001FF
